:040000000CEF00F011
:10000800FACF0EF0FBCF0FF0E9CF10F028ED1EF07D
:1000180044EF20F0C60E0101356F000E0101366F66
:1000280022EF06F0250E01014A19D8B406D00101C5
:100038004A5111EC26F022EF06F0000E01013E6F46
:10004800000E3D6F000E0101466F000E456F07D090
:10005800010145850001C44BC52B01D00BD0C4C09C
:10006800F6FFC5C0F7FF0800F550300AD8B4F0D73E
:1000780001D0F5D7C4C0F6FFC5C0F7FF0800F5509A
:100088005BEC25F0D8A04DD0000E01013E6F000EAC
:100098003D6F00D03DC12AF03EC12BF0000E2D6E01
:1000A8000A0E2C6EC3EC24F02AC03DF12BC03EF1A1
:1000B800D00E0001D26FFF0E0001D36FC4C0F6FF4F
:1000C800C5C0F7FF0800F5500001D46FD56B0001DB
:1000D800D2510001D4270001D3510001D5230001DA
:1000E800D45101013D270001D55101013E230001F2
:1000F800C44BC52BC4C0F6FFC5C0F7FF0800F550B8
:100108005BEC25F0D8A00DD0C5D70BD033EF06F0A7
:100118000101468524D00101458F21D022EF06F048
:100128001ED0C4C0F6FFC5C0F7FF0001C44BC52BE5
:100138000800F5CF4AF101014A51000AD8B433EF5B
:1001480006F0640AD8B40BD0020AD8B4E1D70F0A73
:10015800D8B405D0110AD8B4DED722EF06F0070EBE
:1001680001014615D8B49ED3000E0101386F060E62
:10017800376F35C1D9FF36C1DAFFDECF47F1DECFA1
:1001880048F1DDCF49F1030E01013527000E362372
:10019800010149AF12D047C11CF048C11DF049C147
:1001A8001EF037EC25F01CC047F11DC048F11EC0F9
:1001B80049F1030E0101451300D0000E0101406F03
:1001C800000E3F6F0101475101014811010149111A
:1001D800D8B493D0820E0001D26FFF0E0001D36F06
:1001E80047C1D4F048C1D5F049C1D6F04AC1D7F0CB
:1001F800100E06D00001D890D733D633D533D43378
:10020800E82EF8D70001D4510001D22501013F6F33
:10021800000E0001D3210101406F01013F07D8A062
:1002280040073FC12AF040C12BF0000E2D6E030E8F
:100238002C6EC3EC24F02AC03FF12BC040F13FC123
:1002480022F040C123F0000E256E0A0E246E92ECB7
:100258001DF022C03FF123C040F1010140AF05D09D
:1002680001013F07D8A0400700D001013F51000815
:1002780034EC06F03FC039F140C03AF141C03BF1DF
:1002880039C130F03AC131F03BC132F047C133F0E7
:1002980048C134F049C135F0F0EC1AF030C039F1FA
:1002A80031C03AF132C03BF139C128F03AC129F0E6
:1002B8003BC12AF0000E2B6E800E2C6E3F0E2D6E69
:1002C800DDEC1DF0D8B005D001013F07D8A04007EC
:1002D80014D039C128F03AC129F03BC12AF0000EE8
:1002E8002B6E200E2C6E410E2D6EDDEC1DF0D8A06D
:1002F80004D001013F4B402B00D0010138BF08D08A
:10030800010138511EE10D0E0101375DD8B019D039
:1003180047C1B2F048C1B3F049C1B4F00101375147
:10032800B9EC0FF03FC0B5F040C0B6F041C0B7F02F
:100338007AEC0EF0B2C047F1B3C048F1B4C049F14D
:1003480000D0010140BF08D0010140512CE10A0E44
:1003580001013F5DD8B027D0010147510101481183
:1003680001014911D8B47BD047C1B2F048C1B3F0FC
:1003780049C1B4F099EC16F00001B2510001B31173
:100388000001B4110001B511D8A469D0010140BF22
:1003980066D00101405107E1020E01013F5DD8B06E
:1003A80002D05DD000D039C128F03AC129F03BC154
:1003B8002AF0700E2B6E890E2C6E400E2D6EDDEC21
:1003C8001DF0D8B003D00101F70E02D00101F80EDC
:1003D8003F27FF0E402300D001013F5134EC06F0C7
:1003E8003FC039F140C03AF141C03BF117D047C195
:1003F8001CF048C11DF049C11EF039C11FF03AC1B7
:1004080020F03BC121F0EBEC19F01CC041F11DC0FC
:1004180042F11EC043F11FC044F117D047C11CF080
:1004280048C11DF049C11EF039C11FF03AC120F082
:100438003BC121F054EC18F01CC041F11DC042F141
:100448001EC043F11FC044F100D0000E0101476FE8
:10045800000E0101486F000E0101496F34D047C1F9
:10046800B2F048C1B3F049C1B4F099EC16F0B2C08B
:1004780041F1B3C042F1B4C043F1B5C044F147C142
:10048800BEF048C1BFF049C1C0F041C124F042C12B
:1004980025F043C126F044C127F057EC21F024C0D1
:1004A800C1F025C0C2F026C0C3F031EC22F0BEC0B6
:1004B80047F1BFC048F1C0C049F1000E0101406FCB
:1004C800000E3F6F00D0010E01014A6F0A0E0101B4
:1004D8004A19D8B422D001D020D001014A51040DC4
:1004E800940EF324F66EFE0EF420F76E0900F55014
:1004F8000101415D0900F550010142590900F5501B
:10050800010143590900F55001014459D8A005D00B
:1005180001D003D001014A2BD9D74AC1D2F000013A
:10052800D36BD2BFD307010137510001D227010194
:1005380038510001D32301013F510001D2270101A5
:1005480040510001D3230001D25101013D5F000158
:10055800D35101013E5B0101375101013811D8B473
:1005680005D001013D07D8A03E0700D0030E0101C8
:1005780045150001D26F000E010146150001D36F29
:100588000001D2510001D311D8B405D001013D07B3
:10059800D8A03E0700D0010145A531D0030E0101C6
:1005A80045150001D26F000E010146150001D36FF9
:1005B8000001D2510001D311D8B40CD02D0E11EC8A
:1005C80026F008D0300E11EC26F001013D07D8A026
:1005D8003E0700D001013EBF77D001013E51F2E154
:1005E80001013D05D8A070D0EDD76ED008D0200EFF
:1005F80011EC26F001013D07D8A03E0700D001010B
:100608003EBF07D001013E51F2E101013D05D8B0DE
:10061800EED7030E010145150001D26F000E01014E
:1006280046150001D36F0001D2510001D311D8B48F
:100638004BD02D0E11EC26F047D041C11CF042C121
:100648001DF043C11EF044C11FF001014A51040DC1
:10065800940EF324F66EFE0EF420F76E0900F5CF23
:1006680020F00900F5CF21F00900F5CF22F00A00AB
:10067800F5CF23F070EC1EF01CC039F11DC03AF123
:100688001EC03BF11FC03CF139C129F03AC12AF024
:100698003BC12BF03CC12CF00A0E2D6E000E2E6EC5
:1006A800000E2F6E000E306E7EEC20F029C039F15E
:1006B8002AC03AF12BC03BF12CC03CF10101395161
:1006C800300F11EC26F000D001014A0701014A2938
:1006D800D8B40AD0B2D708D0300E11EC26F00101F8
:1006E8003F07D8A0400700D0010140BF07D0010153
:1006F8004051F2E101013F05D8B0EED7010138BF02
:100708000CD00101385105E1090E0101375DD8A06F
:1007180004D0080E01014A6F03D037C14AF100D056
:1007280001014A510101375F000E01014ABFFF0E66
:100738000101385B01014A510101D8B404D02E0EE1
:1007480011EC26F000D001014A5134EC06F03FC00C
:1007580031F140C032F141C033F147C133F048C1F3
:1007680034F049C135F031C130F032C131F033C114
:1007780032F0F0EC1AF030C0B2F031C0B3F032C051
:10078800B4F099EC16F0B2C041F1B3C042F1B4C074
:1007980043F1B5C044F16ED041C11CF042C11DF017
:1007A80043C11EF044C11FF001014A51040D940ECB
:1007B800F324F66EFE0EF420F76E0900F5CF20F054
:1007C8000900F5CF21F00900F5CF22F00A00F5CF96
:1007D80023F070EC1EF01CC039F11DC03AF11EC0A8
:1007E8003BF11FC03CF139C129F03AC12AF03BC1A5
:1007F8002BF03CC12CF00A0E2D6E000E2E6E000E52
:100808002F6E000E306E7EEC20F029C039F12AC020
:100818003AF12BC03BF12CC03CF101013951300FAA
:1008280011EC26F041C129F042C12AF043C12BF056
:1008380044C12CF001014A51040D940EF324F66EC4
:10084800FE0EF420F76E0900F5CF2DF00900F5CF64
:100858002EF00900F5CF2FF00A00F5CF30F07EEC2E
:1008680020F029C041F12AC042F12BC043F12CC02D
:1008780044F100D001014A0701014A29D8B40AD03D
:100888008BD708D0300E11EC26F001013707D8A01D
:10089800380700D00101375101013811D8B4CED141
:1008A800F1D7CCD1010145BF23D035C1D9FF36C11D
:1008B800DAFFDECF41F1DDCF42F10101000E42BF88
:1008C800FF0E436F446F020E01013527000E3623D9
:1008D800010144AF78D0030E010145130101441F03
:1008E800431F421F416D000E4223432344236BD014
:1008F80035C1D9FF36C1DAFFDECFD2F0DDCFD3F074
:10090800D2C041F1D3C042F10101436B446B020EE6
:1009180001013527000E362356D0010E01014A6F1A
:100928000A0E01014A19D8B458D001D056D0010195
:100938004A51040D940EF324F66EFE0EF420F76E61
:100948000900F5500101415D0900F55001014259C6
:100958000900F550010143590900F55001014459B6
:10096800D8A03BD001D039D001014A2BD9D735D0F6
:10097800010E01014A6F080E01014A19D8B42DD0A1
:1009880001D02BD001014A51040D0A0EF324F66E52
:10099800FF0EF420F76E0900F5500101415D0900D2
:1009A800F550010142590900F55001014359090068
:1009B800F55001014459D8A010D001D00ED0010142
:1009C8004A2BD9D70AD001014551800B000AD8B467
:1009D800A4D7800AD8B4CCD700D001013D51010179
:1009E8003E11D8B415D0030E010145150001D26F90
:1009F800000E010146150001D36F0001D25100011C
:100A0800D311D8B405D001013D07D8A03E0700D0C6
:100A1800800E01014ABF7F0E0001D26F01013D51D6
:100A280001014A5D01013E51800A0001D259D8B046
:100A38000BD001014A5101013D5F000E01014ABF7F
:100A4800FF0E01013E5B06D0000E01013E6F000E55
:100A58003D6F00D0010145A529D0030E01014515C0
:100A68000001D26F000E010146150001D36F00018D
:100A7800D2510001D311D8B404D02D0E11EC26F0B8
:100A880000D001013D5101013E11D8B438D0300EDB
:100A980011EC26F001013D07D8A03E0701013D51A8
:100AA80001013E11D8B42BD0F2D729D001013D5114
:100AB80001013E11D8B40FD0200E11EC26F001012F
:100AC8003D07D8A03E0701013D5101013E11D8B4B0
:100AD80002D0F2D700D0030E010145150001D26FF4
:100AE800000E010146150001D36F0001D25100012B
:100AF800D311D8B404D02D0E11EC26F000D001018A
:100B08004A510101376F386B37BF38078AD07AD01E
:100B180037C1D2F038C1D3F00001D890D237D337DB
:100B28000001D890D237D337940E0001D225F66E43
:100B3800FE0ED321F76E0900F5CF20F00900F5CF9E
:100B480021F00900F5CF22F00A00F5CF23F041C1CA
:100B58001CF042C11DF043C11EF044C11FF070ECEF
:100B68001EF01CC029F01DC02AF01EC02BF01FC0AB
:100B78002CF00A0E2D6E000E2E6E000E2F6E000E3B
:100B8800306E7EEC20F02950300F01014A6F44D0BE
:100B980041C11CF042C11DF043C11EF044C11FF009
:100BA80037C1D2F038C1D3F00001D890D237D3374B
:100BB8000001D890D237D3370A0E0001D225F66E3D
:100BC800FF0ED321F76E0900F5CF20F00900F5CF0D
:100BD80021F00900F5CF22F00A00F5CF23F070ECE0
:100BE8001EF01C500F0B0101346F01013451010D2F
:100BF800810EF324F66EFF0EF420F76E0800F5CF91
:100C08004AF10AD001014551800B000AD8B480D7B7
:100C1800800AD8B4BDD700D001014A5111EC26F0A2
:100C280000D001013707D8A0380701013729EAE1C8
:100C380001013829D8B402D0E5D700D0C4C0F6FFE6
:100C4800C5C0F7FF0001C44BC52B0800F5CF4AF11A
:100C580001014A51D8B403D016EF00F000D01200B9
:100C6800456E45AEEFD0456C4550800A120FD8A0AE
:100C78008DD0000E2D6E030E2C6E000E256E0A0E02
:100C8800246E000E1F6E640E1E6E45501C6E1D6A8B
:100C98001CBE1D06C8EC1FF01CC022F01DC023F0AE
:100CA80092EC1DF0090E22242A6E000E23202B6ED2
:100CB800C3EC24F0BC0E2A24F66EFE0E2B20F76E31
:100CC8000900F5CF33F00900F5CF34F00A00F5CF6D
:100CD80035F0000E256E640E246E4550226E236A90
:100CE80022BE230692EC1DF0120E22242A6E000E5C
:100CF80023202B6E000E2D6E030E2C6EC3EC24F0F9
:100D0800BC0E2A24F66EFE0E2B20F76E0900F5CFD6
:100D180030F00900F5CF31F00A00F5CF32F0F0ECF1
:100D28001AF030C042F031C043F032C044F042C043
:100D380030F043C031F044C032F0000E2D6E030E87
:100D48002C6E000E1F6E0A0E1E6E45501C6E1D6A1C
:100D58001CBE1D06C8EC1FF01CC02AF01DC02BF0DD
:100D6800C3EC24F0BC0E2A24F66EFE0E2B20F76E80
:100D78000900F5CF33F00900F5CF34F00A00F5CFBC
:100D880035F0F0EC1AF041D15AD154D04550800AD0
:100D9800750FD8A04FD0000E256E0A0E246E455050
:100DA800226E236A22BE230692EC1DF0090E22242D
:100DB8002A6E000E23202B6E000E2D6E030E2C6E55
:100DC800C3EC24F0BC0E2A24F66EFE0E2B20F76E20
:100DD8000900F5CF30F00900F5CF31F00A00F5CF62
:100DE80032F0000E2D6E030E2C6E000E1F6E0A0ED2
:100DF8001E6E45501C6E1D6A1CBE1D06C8EC1FF0F9
:100E08001CC02AF01DC02BF0C3EC24F0BC0E2A2411
:100E1800F66EFE0E2B20F76E0900F5CF33F00900B1
:100E2800F5CF34F00A00F5CF35F0F0EC1AF0EDD03C
:100E380006D100D04550030DBC0EF324F66EFE0E0D
:100E4800F2D0FDD04550800A120FD8A08DD0000EE8
:100E58002D6E030E2C6E000E256E0A0E246E000EEB
:100E68001F6E640E1E6E45501C6E1D6A1CBE1D064C
:100E7800C8EC1FF01CC022F01DC023F092EC1DF03E
:100E8800090E22242A6E000E23202B6EC3EC24F0B8
:100E9800E30E2A24F66EFE0E2B20F76E0900F5CF1E
:100EA80033F00900F5CF34F00A00F5CF35F0000E25
:100EB800256E640E246E4550226E236A22BE2306D8
:100EC80092EC1DF0120E22242A6E000E23202B6EA7
:100ED800000E2D6E030E2C6EC3EC24F0E30E2A24B4
:100EE800F66EFE0E2B20F76E0900F5CF30F00900E4
:100EF800F5CF31F00A00F5CF32F0F0EC1AF030C03F
:100F080042F031C043F032C044F042C030F043C038
:100F180031F044C032F0000E2D6E030E2C6E000E20
:100F28001F6E0A0E1E6E45501C6E1D6A1CBE1D06E5
:100F3800C8EC1FF01CC02AF01DC02BF0C3EC24F035
:100F4800E30E2A24F66EFE0E2B20F76E0900F5CF6D
:100F580033F00900F5CF34F00A00F5CF35F0F0ECA6
:100F68001AF053D06CD059D04550800A750FD8A0CC
:100F780054D0000E256E0A0E246E4550226E236A48
:100F880022BE230692EC1DF0090E22242A6E000EC2
:100F980023202B6E000E2D6E030E2C6EC3EC24F056
:100FA800E30E2A24F66EFE0E2B20F76E0900F5CF0D
:100FB80030F00900F5CF31F00A00F5CF32F0000E1D
:100FC8002D6E030E2C6E000E1F6E0A0E1E6E4550FF
:100FD8001C6E1D6A1CBE1D06C8EC1FF01CC02AF042
:100FE8001DC02BF0C3EC24F0E30E2A24F66EFE0E8F
:100FF8002B20F76E0900F5CF33F00900F5CF34F058
:101008000A00F5CF35F0F0EC1AF030C03FF031C0EF
:1010180040F032C041F013D000D04550030DE30E2C
:10102800F324F66EFE0EF420F76E0900F5CF3FF0BC
:101038000900F5CF40F00A00F5CF41F000D01200CA
:10104800680EFBEC1EF036C0DEF037C0DFF0DEC005
:101058002AF0DFC02BF0000E2D6E090E2C6EC3ECAB
:1010680024F02AC022F02BC023F0000E256E050EB6
:10107800246E92EC1DF0200E22240001E06F000E79
:1010880023200001E16FDEC022F0DFC023F0000E54
:10109800256E0A0E246E92EC1DF02250300F0001CE
:1010A800AC6FDEC01CF0DFC01DF0000E1F6E0A0E14
:1010B8001E6EC8EC1FF01C50300F0001AD6FE0C071
:1010C80022F0E1C023F0000E256E0A0E246E92EC89
:1010D8001DF02250300F0001AF6FE0C01CF0E1C0DE
:1010E8001DF0000E1F6E0A0E1E6EC8EC1FF01C507D
:1010F800300F0001B06F0001F1390F0B300F000104
:10110800926F0001F1510F0B300F0001936F000136
:10111800F2390F0B300F0001956F0001F2510F0BE0
:10112800300F0001966F0001F6390F0B300F0001E8
:10113800986F0001F6510F0B300F0001996F0001F5
:10114800F3390F0B300F0001806F0001F3510F0BC3
:10115800300F0001816F0001EF390F0B300F0001D4
:10116800836F0001EF510F0B300F0001846F0001F6
:10117800F8390F0B300F0001866F0001F8510F0B83
:10118800300F0001876F0001EB05D8A40BD09B0E30
:101198001C6E000E1D6EF00E1E6EFF0E1F6E33ECE1
:1011A80024F00BD09B0E1C6E000E1D6EF80E1E6EEA
:1011B800FF0E1F6E33EC24F000D0E8C022F0236A43
:1011C800000E256E0A0E246E92EC1DF02250300F90
:1011D8000001A36FE8C01CF01D6A000E1F6E0A0E06
:1011E8001E6EC8EC1FF01C50300F0001A46F0001E8
:1011F800F005D8A423D09F0E1C6E000E1D6EF00EB5
:101208001E6EFF0E1F6E33EC24F0F7C022F0236A27
:10121800000E256E0A0E246E92EC1DF02250300F3F
:101228000001A66FF7C01CF01D6A000E1F6E0A0EA3
:101238001E6EC8EC1FF01C50300F0ED09F0E1C6E97
:10124800000E1D6EF80E1E6EFF0E1F6E33EC24F09E
:101258002D0E0001A66F2D0E0001A76F00D01A0EEB
:101268000001B26FAC0E0001B36F000E0001B46F45
:10127800FF0E0001B66FE00EB56F000E0001B86FEB
:10128800000EB76F020E0001B96F0F0EC8EC17F011
:101298001A0E0001B26FAF0E0001B36F000E00010D
:1012A800B46FFF0E0001B66FE00EB56F000E0001BF
:1012B800B86F000EB76F020E0001B96F460EC8EC8A
:1012C80017F0380E0001B26F920E0001B36F000ED6
:1012D8000001B46F070E0001B66FB569000E00017A
:1012E800B86F000EB76F020E0001B96F0F0EC8EC91
:1012F80017F0560E0001B26F800E0001B36F000E9A
:101308000001B46F070E0001B66FE00EB56F000E56
:101318000001B86F000EB76F020E0001B96F0F0E13
:10132800C8EC17F0760E0001B26F9B0E0001B36F88
:10133800000E0001B46FF80E0001B66F1F0EB56FF6
:10134800000E0001B86F000EB76F010E0001B96FF3
:101358000E0EC8EC17F0760E0001B26FA30E000156
:10136800B36F000E0001B46FF80E0001B66F1F0EC8
:10137800B56F000E0001B86F000EB76F010E0001C7
:10138800B96F320EC8EC17F0760E0001B26F9F0EDF
:101398000001B36F000E0001B46FF80E0001B66FC4
:1013A8001F0EB56F000E0001B86F000EB76F010E6B
:1013B8000001B96F5F0EC8EC17F0900E0001B26F14
:1013C800A60E0001B36F000E0001B46F000E0001FD
:1013D800B66F1F0EB56F000E0001B86F000EB76F25
:1013E800020E0001B96F2E0EC8EC17F01200000EA5
:1013F800306E000E2F6E7CEC25F04FC01CF050C0F4
:101408001DF0570E1E6EFF0E1F6E33EC24F0020EF9
:101418000001B26F4FC0B3F050C0B4F0FF0E00012E
:10142800B66FB569000E0001B86F000EB76F010EF8
:101438000001B96F010EC8EC17F04FC01CF050C086
:101448001DF0A20E1E6EFF0E1F6E33EC24F00D0E63
:101458000001B26F4FC0B3F050C0B4F0F80E0001F5
:10146800B66F1F0EB56F000E0001B86F000EB76F94
:10147800010E0001B96F1C0EC8EC17F0000E286EA3
:10148800280E276E000E2A6E1A0E296E000E2C6E7C
:10149800020E2B6EFF0E2E6EE00E2D6ED5EC12F0A6
:1014A8004FC01CF050C01DF0FC0E1E6EFF0E1F6ECC
:1014B80033EC24F01A0E0001B26F4FC0B3F050C0E5
:1014C800B4F0FF0E0001B66FE00EB56F000E00011C
:1014D800B86F000EB76F020E0001B96F2D0EC8EC81
:1014E80017F0000E286E5F0E276E000E2A6E1A0E79
:1014F800296E000E2C6E020E2B6EFF0E2E6EE00E65
:101508002D6ED5EC12F04FC01CF050C01DF0FA0E35
:101518001E6EFF0E1F6E33EC24F01A0E0001B26F20
:101528004FC0B3F050C0B4F0FF0E0001B66FE00E2C
:10153800B56F000E0001B86F000EB76F020E000104
:10154800B96F640EC8EC17F04FC01CF050C01DF006
:10155800E60E1E6EFF0E1F6E33EC24F02E0E0001F9
:10156800B26F4FC0B3F050C0B4F0000E0001B66FB8
:101578001F0EB56F000E0001B86F000EB76F010E99
:101588000001B96F320EC8EC17F04FC01CF050C004
:101598001DF0EB0E1E6EFF0E1F6E33EC24F04C0E8A
:1015A8000001B26F4FC0B3F050C0B4F0F80E0001A4
:1015B800B66F000EB56F000E0001B86F000EB76F62
:1015C800010E0001B96F320EC8EC17F04FC01CF0C5
:1015D80050C01DF0E00E1E6EFF0E1F6E33EC24F09F
:1015E8006B0E0001B26F4FC0B3F050C0B4F0FF0EE5
:1015F8000001B66FB569000E0001B86F000EB76F35
:10160800010E0001B96F0A0EC8EC17F04FC01CF0AC
:1016180050C01DF0F40E1E6EFF0E1F6E33EC24F04A
:101628006B0E0001B26F4FC0B3F050C0B4F0FF0EA4
:101638000001B66FB569000E0001B86F000EB76FF4
:10164800010E0001B96F320EC8EC17F04FC01CF044
:1016580050C01DF0D90E1E6EFF0E1F6E33EC24F025
:101668006B0E0001B26F4FC0B3F050C0B4F0FF0E64
:101678000001B66FB569000E0001B86F000EB76FB4
:10168800010E0001B96F550EC8EC17F04FC01CF0E1
:1016980050C01DF0920E1E6EFF0E1F6E33EC24F02C
:1016A800820E0001B26F4FC0B3F050C0B4F0FF0E0D
:1016B8000001B66FE00EB56F000E0001B86F000EA6
:1016C800B76F010E0001B96F0F0EC8EC17F0000ECE
:1016D800286E490E276E000E2A6E900E296E000E97
:1016E8002C6E020E2B6E000E2E6E1F0E2D6ED5EC7C
:1016F80012F04FC01CF050C01DF0FA0E1E6EFF0E07
:101708001F6E33EC24F0900E0001B26F4FC0B3F09F
:1017180050C0B4F0000E0001B66F1F0EB56F000E7A
:101728000001B86F000EB76F020E0001B96F4E0EC0
:10173800C8EC17F01200010E0001C66F000E000180
:10174800C76F680E09EC20F00001F6517EEC24F01A
:101758001C50626E0001F2517EEC24F01C50606E49
:101768000001F1517EEC24F01C505F6E0001EF5136
:101778007EEC24F01C505D6E0001F3517EEC24F0E9
:101788001C50616E0001F8517EEC24F01C50636E11
:1017980032EC17F0ACEC13F054D10001F405D8A4E6
:1017A80050D1F088F198000E0001F46FFD0E491831
:1017B8000BE1020E4A1808E14B284C10D8A404D0BB
:1017C800010E0001C56F00D01D0E49180BE1E20E95
:1017D8004A1808E14B284C10D8A404D0010E000187
:1017E800C16F00D05D0E49180BE1A20E4A1808E13E
:1017F8004B284C10D8A404D0010E0001C26F00D0B1
:10180800DD0E49180BE1220E4A1808E14B284C104E
:10181800D8A404D0010E0001C36F00D03D0E4918B2
:101828000BE1C20E4A1808E14B284C10D8A404D08A
:10183800010E0001C46F00D00001C505D8A416D060
:10184800000E0001C56F0001C72B060E0001C71965
:10185800D8A404D0000E0001C76F00D00001C75102
:10186800F8EC11F0000E0001C56F00D00001C105B1
:10187800D8B432D04CD030D05F2A180E5F18D8A414
:1018880040D0000E5F6E3DD0602A3C0E6018D8A490
:1018980038D0000E606E35D0622A3C0E6218D8A48B
:1018A80030D0000E626E2DD0612A0D0E6118D8A4BA
:1018B80028D0010E616E25D05D2A200E5D18D8A4AF
:1018C80020D0010E5D6E1DD0632A640E6318D8A463
:1018D80018D0000E636E15D00001C751000AD8B4A5
:1018E800CBD7010AD8B4D0D7030AD8B4D5D7010AC0
:1018F800D8B4DAD7070AD8B4DFD7010AD8B4E4D7FE
:1019080000D0ACEC13F0000E0001C16F00D0000154
:10191800C205D8B432D04CD030D05F50D8A403D050
:10192800170E5F6E3FD05F063DD06050D8A403D03D
:101938003B0E606E37D0600635D06250D8A403D015
:101948003B0E626E2FD062062DD06104D8A403D05E
:101958000C0E616E27D0610625D05D04D8A403D093
:101968001F0E5D6E1FD05D061DD06350D8A403D036
:10197800630E636E17D0630615D00001C751000AC5
:10198800D8B4CBD7010AD8B4D0D7030AD8B4D5D79E
:10199800010AD8B4DAD7070AD8B4DFD7010AD8B40D
:1019A800E4D700D0ACEC13F0000E0001C26F00D0F9
:1019B8000001C405D8A435D06250B3EC21F02A50F8
:1019C8000001F66F6050B3EC21F02A500001F26F6D
:1019D8005F50B3EC21F02A500001F16F000E576EF2
:1019E8005D50B3EC21F02A500001EF6F6150B3EC69
:1019F80021F02A500001F36F6350B3EC21F02A5014
:101A08000001F86F000E0001C46F680E87EC21F02A
:101A1800680E09EC20F0FBEC09F0000E0001C66F1F
:101A280000D00001C305D8A40CD0000E0001C36F7C
:101A3800680E09EC20F0FBEC09F0000E0001C66FFF
:101A480000D00001C605D8B4A8D61200AEEC25F027
:101A5800700ED36E0B0EC16EF19E3F0E926E070E86
:101A6800936E000E946E000E956E000E966E000E2C
:101A7800BA6EF292F090F092F288F086F088F19CBB
:101A8800F19AF198F28CF28EA00E1C6E860E1D6EE5
:101A9800010E1E6E000E1F6E30EC26F0000E4F6E0B
:101AA800010E506ECBEC25F0AEEC24F0680E80EC05
:101AB80022F03C0E0001F76FFBEC09F0000ECE6E31
:101AC800000ECF6E830ECD6E9E909D80000E00019D
:101AD800F46F000E496E000E4A6E000E4B6E000E3B
:101AE8004C6E000E0001EB6F000E0001F06F000E4F
:101AF8000001EA6F000E0001E86F0001E851640F71
:101B080084EC1FF0000E836E819600D0680E09ECFD
:101B180020F00001F5510001F619D8B47FD0000E6D
:101B280080B8010E0001EB6F0001EB05D8A404D0CA
:101B3800680E00EC24F000D00001EB51D8A404D0CA
:101B4800680ECAEC23F000D0000E80BA010E000126
:101B5800F06F680EFBEC1EF036C0DEF037C0DFF029
:101B680024EC08F00001F7510001D86FD96B00018F
:101B7800D8510001E05D0001E151800A0001DA6FEF
:101B88000001D951800A0001DA59D8B006D0000105
:101B9800F005D8A402D0828002D0829000D02A0E0C
:101BA8000001C46FFF0E0001C56FF1C0C6F000014F
:101BB800C76BF2C0C8F00001C96BF6C0CAF00001DB
:101BC800CB6BF3C0CCF00001CD6BEFC0CEF00001C1
:101BD800CF6BF8C0D0F00001D16B0EEC00F06E0EA8
:101BE8000001C46FFF0E0001C56FDEC0C6F0DFC084
:101BF800C7F0E0C0C8F0E1C0C9F00EEC00F0F6C0D4
:101C0800F5F00001EC05D8A409D00001EB05D8A433
:101C180005D0C2EC25F0B6EC1EF000D0EEEC20F0BA
:101C2800DBC0B2F0DCC0B3F0DDC0B4F099EC16F064
:101C38000001B25190EC23F0BB0E0001C46FFF0EFF
:101C48000001C56FDBC0C6F0DCC0C7F0DDC0C8F05E
:101C58000EEC00F00001F405D8A458D7F088F198EC
:101C6800000E0001F46F6F0E49180AE1900E4A1831
:101C780007E14B284C10D8A403D09FEC0BF000D000
:101C8800570E49180AE1A80E4A1807E14B284C10CC
:101C9800D8A403D0DBEC10F000D01F0E49180AE1DD
:101CA800E00E4A1807E14B284C10D8A403D064EC86
:101CB80019F000D01D0E49180AE1E20E4A1807E192
:101CC8004B284C10D8A403D011EC25F000D05D0EA1
:101CD800491806E1A20E4A1803E14B284C10D8A473
:101CE80015D749EC25F012D70CEF00F0B4C0B8F0C6
:101CF8000001B96BBA6B0001B3350001B83701E3D5
:101D0800B9810001B8510001BD6FB7C0B8F000013A
:101D1800B96BBA6B0001B6350001B83701E3B98178
:101D28000001B8510001BC6F0001BD510001D8B4D9
:101D380011D00001BC510001BD5DD8B012D0000126
:101D4800BD5100080001BC250001B86F180E000144
:101D5800B86507D0B5C0B2F0B6C0B3F0B7C0B4F03C
:101D680003D10001BC510001D8B411D00001BD510C
:101D78000001BC5DD8B012D00001BC5100080001C0
:101D8800BD250001B86F180E0001B86507D0B2C0B4
:101D9800B2F0B3C0B3F0B4C0B4F0E6D0060E0001A0
:101DA800BB6F0001B4AF03D00001BB8F00D00001AE
:101DB800B7AF02D00001BB8D0001B38FFF0E000149
:101DC800B217FF0E0001B317000E0001B41700018F
:101DD800B68FFF0E0001B517FF0E0001B617000EF3
:101DE8000001B7170001BC510001BD5DD8B028D073
:101DF8000001D890B537B637B7370001BC070001E6
:101E0800BD510001BC19D8B413D00001BB07BBC039
:101E1800B8F0070E0001B817D8B40AD0E9D708D02F
:101E28000001D890B433B333B2330001BD2B00D0D6
:101E38000001BC510001BD19D8B430D0F1D72ED063
:101E48000001BD510001BC5DD8B028D00001D89078
:101E5800B237B337B4370001BD070001BD510001E7
:101E6800BC19D8B413D00001BB07BBC0B8F0070E2B
:101E78000001B817D8B40AD0E9D708D00001D89023
:101E8800B733B633B5330001BC2B00D00001BC51C9
:101E98000001BD19D8B402D0F1D700D00001BBAF02
:101EA80012D0FF0E0001B21BFF0E0001B31BFF0E84
:101EB8000001B41B010E0001B227000E0001B3237C
:101EC800000E0001B4230001BBAD13D0FF0E0001CA
:101ED800B51BFF0E0001B61BFF0E0001B71B010E5C
:101EE8000001B527000E0001B623000E0001B7233C
:101EF80000D0000E0001BB6F0001B2510001B527F0
:101F08000001B3510001B6230001B4510001B72309
:101F18000001B7AF16D0FF0E0001B51BFF0E000180
:101F2800B61BFF0E0001B71B010E0001B527000EFE
:101F38000001B623000E0001B723010E0001BB6F9C
:101F480000D0B5C01CF0B6C01DF0B7C01EF0BDC0B3
:101F58001FF0BBC020F02FEC1DF01CC0B2F01DC05C
:101F6800B3F01EC0B4F000D01200486E6D0E486485
:101F78009BD0000E2D6E030E2C6E000E256E0A0EE1
:101F8800246E000E1F6E640E1E6E48C01CF01D6A83
:101F9800C8EC1FF01CC022F01DC023F092EC1DF00D
:101FA800090E22242A6E000E23202B6EC3EC24F087
:101FB800BC0E2A24F66EFE0E2B20F76E0900F5CF14
:101FC80033F00900F5CF34F00A00F5CF35F0000EF4
:101FD800256E640E246E48C022F0236A92EC1DF030
:101FE800120E22242A6E000E23202B6E000E2D6E58
:101FF800030E2C6EC3EC24F0BC0E2A24F66EFE0EE3
:102008002B20F76E0900F5CF30F00900F5CF31F03D
:102018000A00F5CF32F0F0EC1AF030C045F031C0CC
:1020280046F032C047F0000E2D6E030E2C6E000EE7
:102038001F6E0A0E1E6E48C01CF01D6AC8EC1FF009
:102048001CC02AF01DC02BF0C3EC24F0BC0E2A24BF
:10205800F66EFE0E2B20F76E0900F5CF33F009005F
:10206800F5CF34F00A00F5CF35F045C030F046C062
:1020780031F047C032F0F0EC1AF030C042F031C015
:1020880043F032C044F042C030F043C031F044C0A5
:1020980032F0000E336E000E346E3F0E356EF0ECEB
:1020A8001AF07DD083D062D00A0E48645FD0000E4B
:1020B8002D6E030E2C6E000E1F6E0A0E1E6E48C08B
:1020C8001CF01D6AC8EC1FF01CC02AF01DC02BF0C4
:1020D800C3EC24F0BC0E2A24F66EFE0E2B20F76EFD
:1020E8000900F5CF33F00900F5CF34F00A00F5CF39
:1020F80035F0000E256E0A0E246E48C022F0236AC1
:1021080092EC1DF0090E22242A6E000E23202B6E5D
:10211800000E2D6E030E2C6EC3EC24F0BC0E2A2488
:10212800F66EFE0E2B20F76E0900F5CF30F0090091
:10213800F5CF31F00A00F5CF32F0F0EC1AF030C0EC
:1021480045F031C046F032C047F045C030F046C0D7
:1021580031F047C032F0000E336E000E346E3F0E81
:10216800356EF0EC1AF01BD021D000D04850030D8A
:10217800BC0EF324F66EFE0EF420F76E0900F5CFC0
:1021880030F00900F5CF31F00A00F5CF32F0000E3B
:10219800336E000E346E3F0E356EF0EC1AF030C020
:1021A8003FF031C040F032C041F000D01200010EC3
:1021B8000001C66F000E0001C76F680ECBEC22F05D
:1021C80055507EEC24F01C505C6E54507EEC24F08C
:1021D8001C505B6E53507EEC24F01C505A6EE5EC9C
:1021E8001BF0C8EC1CF0FBD00001F405D8A4F7D014
:1021F800F088F198000E0001F46FFD0E49180BE10C
:10220800020E4A1808E14B284C10D8A404D0010E3D
:102218000001C56F00D01D0E49180BE1E20E4A18E7
:1022280008E14B284C10D8A404D0010E0001C16F5E
:1022380000D05D0E49180BE1A20E4A1808E14B28A0
:102248004C10D8A404D0010E0001C26F00D0DD0EDE
:1022580049180BE1220E4A1808E14B284C10D8A463
:1022680004D0010E0001C36F00D03D0E49180BE1E8
:10227800C20E4A1808E14B284C10D8A404D0010E0D
:102288000001C46F00D00001C505D8A416D0000E07
:102298000001C56F0001C72B030E0001C719D8A4A0
:1022A80004D0000E0001C76F00D00001C751F8EC40
:1022B80011F0000E0001C56F00D00001C105D8B4AF
:1022C8001AD02BD018D05A2A180E5A18D8A41FD0B2
:1022D800000E5A6E1CD05B2A3C0E5B18D8A417D08F
:1022E800000E5B6E14D05C2A3C0E5C18D8A40FD08C
:1022F800000E5C6E0CD00001C751000AD8B4E3D7B9
:10230800010AD8B4E8D7030AD8B4EDD700D0C8EC8E
:102318001CF0000E0001C16F00D00001C205D8B446
:102328001AD02BD018D05A50D8A403D0170E5A6EF2
:102338001ED05A061CD05B50D8A403D03B0E5B6E4F
:1023480016D05B0614D05C50D8A403D03B0E5C6E4C
:102358000ED05C060CD00001C751000AD8B4E3D7F0
:10236800010AD8B4E8D7030AD8B4EDD700D0C8EC2E
:102378001CF0000E0001C26F00D00001C405D8A4F3
:102388001ED05C50B3EC21F02A50556E5B50B3EC74
:1023980021F02A50546E5A50B3EC21F02A50536E53
:1023A800000E0001C46F680EADEC23F0680ECBEC94
:1023B80022F0FBEC09F0000E0001C66F00D000010E
:1023C800C305D8A40CD0000E0001C36F680E09EC39
:1023D80020F0FBEC09F0000E0001C66F00D00001F0
:1023E800C605D8B401D71200396E240E3B6E1E0EF6
:1023F8003A6EC2D03A50480F2E6E190E2F6E020E4A
:10240800306E000E326E000E316E3B50020DF350EE
:102418000E0FA6EC22F0480E2E6E190E2F6E020E2D
:10242800306E000E326E000E316E3B50020DF350CE
:102438000E0FA6EC22F0480E2E6E190E2F6E020E0D
:10244800306E070E326E31680E0EA6EC22F0A8D060
:10245800480E2E6E190E2F6E020E306E000E326E62
:10246800000E316E0E0EA6EC22F0480E2E6E190EDE
:102478002F6E020E306E070E326E31683B500E0F13
:10248800A6EC22F08DD0480E2E6E190E2F6E020E7D
:10249800306E000E326E000E316E3B500E0FA6EC01
:1024A80022F0480E2E6E190E2F6E020E306E070E99
:1024B800326E31683B50020DF3500E0FA6EC22F03D
:1024C8006FD0480E2E6E190E2F6E020E306E000E53
:1024D800326E000E316E3B50020DF3500E0FA6EC1B
:1024E80022F03A50480F2E6E190E2F6E020E306EE3
:1024F800070E326E31680E0EA6EC22F051D03A501B
:10250800480F2E6E190E2F6E020E306E000E326EB0
:10251800000E316E0E0EA6EC22F03A50480F2E6EC9
:10252800190E2F6E020E306E070E326E31683B5058
:102538000E0FA6EC22F034D03A50480F2E6E190E2A
:102548002F6E020E306E000E326E000E316E3B5052
:102558000E0FA6EC22F03A50480F2E6E190E2F6E71
:10256800020E306E070E326E31683B50020DF3508A
:102578000E0FA6EC22F014D03950000AD8B43AD77E
:10258800010AD8B465D7030AD8B47DD7010AD8B4EC
:1025980098D7070AD8B4B3D7010AD8B4CDD700D092
:1025A80012002BC02FF02CC030F02F1E301E2F4AE7
:1025B800302A010E2F24356E000E3020366E000EA4
:1025C800326E010E316E2BC02FF02CC030F0D89037
:1025D8002F3630362F1E301E2F4A302A2FC033F0A8
:1025E80030C034F0000E386E000E376E2BC039F054
:1025F8002CC03AF029502B24236E2DC024F02EC075
:1026080025F0275096EC24F02B5000082924236E3F
:102618002DC024F02EC025F0275096EC24F029C0B8
:1026280023F02DC024F02EC025F027502B2496EC43
:1026380024F029C023F02DC024F02EC025F02B5003
:102648000008272496EC24F078D036BE0BD0390643
:10265800D8A03A06020E3326000E3422335035260F
:1026680034503622374A382A020E3126000E3222DA
:10267800315035263250362229503924236E2DC048
:1026880024F02EC025F02750372496EC24F029504A
:102698003924236E2DC024F02EC025F037500008B1
:1026A800272496EC24F0395000082924236E2DC0E5
:1026B80024F02EC025F02750372496EC24F039500A
:1026C80000082924236E2DC024F02EC025F0375091
:1026D8000008272496EC24F029503724236E2DC0B7
:1026E80024F02EC025F02750392496EC24F02950E8
:1026F8003724236E2DC024F02EC025F03950000851
:10270800272496EC24F0375000082924236E2DC086
:1027180024F02EC025F02750392496EC24F03750A9
:1027280000082924236E2DC024F02EC025F039502E
:102738000008272496EC24F000D03950375C385034
:10274800800A2F6E3A50800A2F58D8A07ED71200E0
:102758005FC022F0236A000E256E0A0E246E92ECEA
:102768001DF02250300F0001896F5FC01CF01D6AF8
:10277800000E1F6E0A0E1E6EC8EC1FF01C50300FA4
:1027880000018A6F60C022F0236A000E256E0A0ECF
:10279800246E92EC1DF02250300F00018C6F60C047
:1027A8001CF01D6A000E1F6E0A0E1E6EC8EC1FF08C
:1027B8001C50300F00018D6F62C022F0236A000E9A
:1027C800256E0A0E246E92EC1DF02250300F000187
:1027D8008F6F62C01CF01D6A000E1F6E0A0E1E6EFF
:1027E800C8EC1FF01C50300F0001906F61C022F040
:1027F800236A000E256E0A0E246E92EC1DF02250FC
:10280800300F0101286F61C01CF01D6A000E1F6E99
:102818000A0E1E6EC8EC1FF01C50300F0101296F04
:102828005DC022F0236A000E256E0A0E246E92EC1B
:102838001DF02250300F01012B6F5DC01CF01D6A86
:10284800000E1F6E0A0E1E6EC8EC1FF01C50300FD3
:1028580001012C6F63C022F0236A000E256E0A0E58
:10286800246E92EC1DF02250300F01012E6F63C0D0
:102878001CF01D6A000E1F6E0A0E1E6EC8EC1FF0BB
:102888001C50300F01012F6F380E0001B26F890EF6
:102898000001B36F000E0001B46F070E0001B66FA0
:1028A800B569000E0001B86F000EB76F020E000187
:1028B800B96F0F0EC8EC17F0560E0001B26F280E54
:1028C8000001B36F010E0001B46F070E0001B66F6F
:1028D800E00EB56F000E0001B86F000EB76F020E64
:1028E8000001B96F0F0EC8EC17F01200000E306E21
:1028F800000E2F6E7CEC25F04FC01CF050C01DF070
:10290800570E1E6EFF0E1F6E33EC24F0020E0001F0
:10291800B26F4FC0B3F050C0B4F0FF0E0001B66FF5
:10292800B569000E0001B86F000EB76F010E000107
:10293800B96F010EC8EC17F04FC01CF050C01DF065
:10294800D10E1E6EFF0E1F6E33EC24F0110E000127
:10295800B26F4FC0B3F050C0B4F0F80E0001B66FBC
:102968001F0EB56F000E0001B86F000EB76F020E94
:102978000001B96F1A0EC8EC17F04FC01CF050C018
:102988001DF0B40E1E6EFF0E1F6E33EC24F0250EE4
:102998000001B26F4FC0B3F050C0B4F0F80E0001A0
:1029A800B66F1F0EB56F000E0001B86F000EB76F3F
:1029B800020E0001B96F1A0EC8EC17F04FC01CF0D8
:1029C80050C01DF0920E1E6EFF0E1F6E33EC24F0E9
:1029D800500E0001B26F4FC0B3F050C0B4F0FF0EFC
:1029E8000001B66FE00EB56F000E0001B86F000E63
:1029F800B76F010E0001B96F0F0EC8EC17F0000E8B
:102A0800286E490E276E000E2A6E5E0E296E000E85
:102A18002C6E020E2B6E000E2E6E1F0E2D6ED5EC38
:102A280012F04FC01CF050C01DF0FA0E1E6EFF0EC3
:102A38001F6E33EC24F05E0E0001B26F4FC0B3F08E
:102A480050C0B4F0000E0001B66F1F0EB56F000E37
:102A58000001B86F000EB76F020E0001B96F4E0E7D
:102A6800C8EC17F01200F0925850D8B4A1D0CE504C
:102A7800CFCF01F0026A01C002F0016A0110036EB3
:102A88000250046E000ECF6E000ECE6E91D0000E76
:102A9800CF6E000ECE6E900ECD6ECD80000E000172
:102AA800E56F000EE46F000E496E000E4A6E000ED0
:102AB8004B6E000E4C6EF188010E78D08AD0340E21
:102AC800035C210E0458D8A070D01D0E035C250E9F
:102AD8000458D8B06AD0F198020E68D066D079D080
:102AE800A00E035C0F0E0458D8A05FD0890E035CBB
:102AF800130E0458D8B059D0F18854D056D069D0A4
:102B0800900E035C010E0458D8A04FD0BD0E035C94
:102B1800020E0458D8B049D0F198040E47D045D0D9
:102B280058D0900E035C010E0458D8A03ED0090E70
:102B3800035C070E0458D8B038D0D8904934496E91
:102B48004A344A6E4B344B6E4C344C6EE90E035C7F
:102B5800030E0458D8A00CD0010E4924496E000E6B
:102B68004A204A6E000E4B204B6E000E4C204C6ED5
:102B7800010E0001E4250001E46F000E0001E521CB
:102B88000001E56F0001E5BFB7D70001E55105E198
:102B9800200E0001E45DD8A0AFD7010E0001F46F4C
:102BA800F09817D0030E02D014D0000E586E11D032
:102BB8005850000AD8B46BD7010AD8B480D7030A92
:102BC800D8B48ED7010AD8B49BD7070AD8B4A9D7E6
:102BD80000D01200416E800E4160A6D09F0E39646D
:102BE80001D0A2D03F50D8A403D0010E3F6E00D030
:102BF8001F0E3A6404D07E0E3A6403D000D03F0E14
:102C08003A6E000E436E040E436401D08DD0530E0D
:102C18003A6015D0E00E3A242A6E2B6AFF0E2B225A
:102C2800000E2D6E050E2C6EC3EC24F043502A26A0
:102C3800000E2B22B90E2A24F66EFC0E14D0AD0E0F
:102C48003A242A6E2B6AFF0E2B22000E2D6E050EDB
:102C58002C6EC3EC24F043502A26000E2B22B80E0B
:102C68002A24F66EFD0E2B20F76E0800F5CF40F0F3
:102C780000D0000E426E060E426401D053D040A030
:102C880023D03F04D8A40CD039504224236E3BC033
:102C980024F03CC025F04150432496EC24F03ED06B
:102CA80042503F02F35039242E6E3FC02FF03FC0F0
:102CB80030F03BC031F03CC032F043503F02F3509B
:102CC8004124A6EC22F02AD03B503D1804E13C50A8
:102CD8003E18D8B423D03F04D8A40CD0395042248D
:102CE800236E3DC024F03EC025F04150432496ECAD
:102CF80024F014D042503F02F35039242E6E3FC0C6
:102D08002FF03FC030F03DC031F03EC032F04350AC
:102D18003F02F3504124A6EC22F000D0422AD8907A
:102D28004032A9D7432A6FD71200B4C0B6F00001C9
:102D3800B76BB86B0001B3350001B63701E3B78153
:102D48000001B6510001C06F0001C051D8A402D0E3
:102D580051D083D0170E0001B66FB2C0B7F0B3C020
:102D6800B8F0B4C0B9F00001B6290001BA6F05D0B7
:102D78000001D890B933B833B7330001BA2FF8D768
:102D88000001B7510001BB6F0001B38FFF0E0001B6
:102D9800B217FF0E0001B317000E0001B4170001AF
:102DA800B2510001BC6F0001B3510001BD6F0001B9
:102DB800B4510001BE6F0001BF6B8E0E0001C05FF1
:102DC8000001C0AF13D00001C051800A8F0FD8B0E6
:102DD80003D010D042D000D00001D890BF33BE330A
:102DE800BD33BC330001C03FF7D71FD0170E000119
:102DF800C06514D0000E0001B26F000EB36F000E54
:102E0800B46F000EB56F29D009D00001D890BC3737
:102E1800BD37BE37BF370001C00700D00001C05121
:102E28000001D8B402D0F1D700D00001BB51000195
:102E3800D8B40AD00001BF1FBE1FBD1FBC6D000E55
:102E4800BD23BE23BF2300D0BCC0B2F0BDC0B3F0C9
:102E5800BEC0B4F0BFC0B5F000D01200000E306E96
:102E6800000E2F6E7CEC25F04FC01CF050C01DF0FA
:102E7800570E1E6EFF0E1F6E33EC24F0020E00017B
:102E8800B26F4FC0B3F050C0B4F0FF0E0001B66F80
:102E9800B569000E0001B86F000EB76F010E000192
:102EA800B96F010EC8EC17F04FC01CF050C01DF0F0
:102EB800AF0E1E6EFF0E1F6E33EC24F0110E0001D4
:102EC800B26F4FC0B3F050C0B4F0F80E0001B66F47
:102ED8001F0EB56F000E0001B86F000EB76F020E1F
:102EE8000001B96F040EC8EC17F04FC01CF050C0B9
:102EF8001DF0E60E1E6EFF0E1F6E33EC24F02E0E34
:102F08000001B26F4FC0B3F050C0B4F0000E000122
:102F1800B66F1F0EB56F000E0001B86F000EB76FC9
:102F2800010E0001B96F320EC8EC17F0480E2E6E74
:102F3800190E2F6E020E306E070E326E31680E0EAD
:102F4800A6EC22F04FC01CF050C01DF0EB0E1E6E18
:102F5800FF0E1F6E33EC24F04C0E0001B26F4FC011
:102F6800B3F050C0B4F0F80E0001B66F000EB56FA4
:102F7800000E0001B86F000EB76F010E0001B96FA7
:102F8800320EC8EC17F012000001BA6FBAC0C0F0D8
:102F9800B2C0BFF0B3C01CF0B4C01DF033EC23F0D6
:102FA8001CC0BBF01DC0BCF0000E0001BE6F000EBF
:102FB800BD6F6BD06450D8B438D00001B951050D3D
:102FC8000001C051446E456AF3504426F45045222E
:102FD80045BE2BD0455004E1810E445CD8A025D0D5
:102FE800000E0001C06F0001B951070DF350000138
:102FF800BF25030F0001BF6FA00E0001BF6504D0FD
:10300800A00E0001BF6F00D00001BD510001B32523
:10301800D96E0001BE510001B421DA6E200EDE180F
:10302800D8B42FD002D02DD000D0BFC039F00001C5
:10303800BD510001B325D96E0001BE510001B42174
:10304800DA6EDF503A6EB5C03BF0B6C03CF0B7C0A0
:103058003DF0B8C03EF0B9C03FF00001C051EEEC01
:1030680015F00001B951060DF3500001C02500010B
:10307800C06F800E0001C06504D0800E0001C06FD3
:1030880000D00001BD4BBE2B00D00001BB51000198
:10309800BD5D0001BC510001BE59D8A08BD71200FC
:1030A8001EC022F0236A246A1D34223601E32380DD
:1030B80022502A6E2A50D8A402D05DD078D021C0E0
:1030C80022F0236A246A2034223601E32380225026
:1030D800296E2950D8A402D04ED069D01D8EFF0E7B
:1030E8001C16FF0E1D16000E1E16208EFF0E1F1634
:1030F800FF0E2016000E2116000E256E000E266EFD
:10310800000E276E000E286E7F0E2A5E2950980F3B
:103118002A5E180E296ED890253626362736283688
:103128001F501C5C20501D5821501E58D8A007D095
:103138001F501C5E20501D5A21501E5A2580D890C1
:103148001C361D361E36292EE6D700D02AAE10D0E2
:103158002A50800A970FD8B003D00DD028D000D0BD
:10316800D89028322732263225322A3EF9D717D06E
:10317800170E2A6411D0000E1C6E000E1D6E000E74
:103188001E6E000E1F6E13D007D0D8902536263637
:10319800273628362A0600D02A50D8A4F6D725C0C4
:1031A8001CF026C01DF027C01EF028C01FF012001A
:1031B800010E09EC26F0000E316E960E306EDFEC33
:1031C80021F0110E09EC26F0010E316EF40E306E6E
:1031D800DFEC21F0B10E09EC26F0010E01EC26F02F
:1031E8002C0E01EC26F02D0E01EC26F0B20E09ECA7
:1031F80026F0010E01EC26F02C0E01EC26F02D0E27
:1032080001EC26F0B30E09EC26F0010E01EC26F0D5
:103218002C0E01EC26F02D0E01EC26F0010E01EC2F
:1032280026F02C0E01EC26F02D0E01EC26F0B40E43
:1032380009EC26F0070E01EC26F0C00E09EC26F08A
:10324800A20E01EC26F0020E01EC26F0840E01EC31
:1032580026F0C10E09EC26F0C50E01EC26F0C20ED0
:1032680009EC26F00A0E01EC26F0000E01EC26F01F
:10327800C30E09EC26F08A0E01EC26F02A0E01ECAA
:1032880026F0C40E09EC26F08A0E01EC26F0EE0EAC
:1032980001EC26F0C50E09EC26F00E0E01EC26F026
:1032A800200E09EC26F0360E09EC26F0C80E01ECCB
:1032B80026F03A0E09EC26F0050E01EC26F0120075
:1032C8007AEC14F0010E0001C66F000E0001C16F08
:1032D80023EC21F0F7C05EF075D00001F405D8A406
:1032E80071D0F088F198000E0001F46F1D0E491896
:1032F8000BE1E20E4A1808E14B284C10D8A404D080
:10330800010E0001C26F00D05D0E49180BE1A20E3C
:103318004A1808E14B284C10D8A404D0010E00012B
:10332800C36F00D0DD0E49180BE1220E4A1808E1E0
:103338004B284C10D8A404D0010E0001C46F00D053
:103348003D0E49180BE1C20E4A1808E14B284C10F3
:10335800D8A404D0010E0001C56F00D00001C20539
:10336800D8A408D00001F72B000E0001C26F23EC8F
:1033780021F000D00001C305D8A408D00001F70748
:10338800000E0001C36F23EC21F000D00001C50539
:10339800D8A409D0000E0001C56FFBEC09F0000E9F
:1033A8000001C66F00D00001C405D8A40BD05EC0D0
:1033B800F7F0000E0001C46FFBEC09F0000E0001ED
:1033C800C66F00D00001C605D8B487D712001E34D6
:1033D8001F34276E2750D8A402D061D07CD0213466
:1033E8002234266E2650D8A402D059D074D01E8E0E
:1033F800FF0E1C16FF0E1D16FF0E1E16000E1F16C2
:10340800218EFF0E1F16FF0E2016FF0E2116000E2E
:103418002216000E226E000E236E000E246E000E81
:10342800256E7F0E275E2650A00F275E200E266E83
:1034380000D0D89022362336243625361F501C5CFF
:1034480020501D5821501E5822501F58D8A00AD06D
:103458001F501C5E20501D5A21501E5A22501F5AC0
:10346800228000D0D8901C361D361E361F36262ED8
:10347800E0D700D027AE10D02750800A9F0FD8B0D1
:1034880003D00DD028D000D0D89025322432233252
:103498002232273EF9D717D01F0E276411D0000E0D
:1034A8001C6E000E1D6E000E1E6E000E1F6E13D0D9
:1034B80007D0D8902236233624362536270600D062
:1034C8002750D8A4F6D722C01CF023C01DF024C072
:1034D8001EF025C01FF0120041C045F0466A476A39
:1034E8004034453601E3468045500001B66F00017F
:1034F800B651D8A402D010D06ED044C045F0466A68
:10350800476A4334453601E3468045500001B76FAA
:103518000001B751D8A407D0000E3F6E000E406ED0
:10352800000E416E58D0000E0001B36F000E00016E
:10353800B46F000E0001B56F0001B751890F00018B
:10354800B65F41C0B7F044500001B71B800E0001C0
:10355800B717408EFF0E3F16FF0E4016000E41169D
:10356800438EFF0E4216FF0E4316000E4416180E29
:103578000001B26F00D00001D890B337B437B53727
:1035880042503F5C4350405844504158D8A008D05E
:1035980042503F5E4350405A4450415A0001B38163
:1035A800D8903F36403641360001B22FE4D700D0DC
:1035B800B3C01CF0B4C01DF0B5C01EF0B6C01FF0FB
:1035C800B7C020F02FEC1DF01CC03FF01DC040F02C
:1035D8001EC041F000D0120032C036F0376A386A97
:1035E8003134363601E337803650396E3950D8A435
:1035F80002D00ED06CD035C036F0376A386A343411
:10360800363601E3378036503E6E3E50D8A407D098
:10361800000E306E000E316E000E326E58D03E50E5
:103628007B0F392632C03EF035503E1A800E3E16CA
:10363800318E348EFF0E3316FF0E3416000E3516FB
:10364800000E3A6E000E3B6E000E3C6E070E3D6E8D
:1036580000D030A007D033503A2634503B223550A2
:103668003C2200D0D890323231323032D8903336C2
:10367800343635363D2EEDD700D0090E3D6E00D0DC
:1036880030A007D033503A2634503B2235503C22E4
:1036980000D0D890323231323032D8903C323B327E
:1036A8003A323D2EEDD700D03AC01CF03BC01DF099
:1036B8003CC01EF039C01FF03EC020F02FEC1DF0BA
:1036C8001CC030F01DC031F01EC032F000D0120016
:1036D800E00E09EC26F0020E01EC26F01C0E01ECBF
:1036E80026F0070E01EC26F0120E01EC26F0370E3C
:1036F80001EC26F0320E01EC26F0290E01EC26F042
:103708002D0E01EC26F0290E01EC26F0250E01EC19
:1037180026F02B0E01EC26F0390E01EC26F0000EF7
:1037280001EC26F0010E01EC26F0030E01EC26F068
:10373800100E01EC26F0E10E09EC26F0030E01EC68
:1037480026F01D0E01EC26F0070E01EC26F0060E01
:1037580001EC26F02E0E01EC26F02C0E01EC26F0E2
:10376800290E01EC26F02D0E01EC26F02E0E01ECB0
:1037780026F02E0E01EC26F0370E01EC26F03F0E57
:1037880001EC26F0000E01EC26F0000E01EC26F00C
:10379800020E01EC26F0100E01EC26F0130E09ECD7
:1037A80026F0000E316E0A0E306EDFEC21F0290E85
:1037B80009EC26F0000E316E640E306EDFEC21F05D
:1037C8001200000E306E000E2F6E7CEC25F04FC0FC
:1037D8001CF050C01DF0570E1E6EFF0E1F6E33EC0E
:1037E80024F0020E0001B26F4FC0B3F050C0B4F025
:1037F800FF0E0001B66FB569000E0001B86F000E2C
:10380800B76F010E0001B96F010EC8EC17F04FC079
:103818001CF050C01DF0C60E1E6EFF0E1F6E33EC5E
:1038280024F0110E0001B26F4FC0B3F050C0B4F0D5
:10383800F80E0001B66F1F0EB56F000E0001B86FCD
:10384800000EB76F020E0001B96F060EC8EC17F034
:103858004FC01CF050C01DF0E60E1E6EFF0E1F6E0E
:1038680033EC24F02E0E0001B26F4FC0B3F050C0FD
:10387800B4F0000E0001B66F1F0EB56F000E000108
:10388800B86F000EB76F010E0001B96F320EC8ECA9
:1038980017F0480E2E6E190E2F6E020E306E070EA0
:1038A800326E31680E0EA6EC22F012002E6E800EDB
:1038B8002E6069D09F0E236401D065D0FF0E286E5C
:1038C800FF0E296E24502EC02AF02B6A2A26000EDD
:1038D8002B2228502A2629502B222BBE0AD02B50C7
:1038E80004E1800E2A5CD8A004D02E500008800F76
:1038F800246EFF0E286EFF0E296E255023C02AF075
:103908002B6A2A26000E2B2228502A2629502B22E1
:103918002BBE0BD02B5004E1A00E2A5CD8A005D0FA
:1039280023500008A00F256E00D023C01FF02E5092
:103938002424286E2804206E23502524296E290467
:10394800216E2E5059EC22F027502C6E26C02DF0F7
:103958008480849225C023F02350D8B413D001D09A
:1039680011D024C02EF02E50D8B40AD001D008D0DF
:103978002C50B8EC25F02D50B8EC25F02E06F3D7D6
:103988002306EAD7848212005AC022F0236A000E66
:10399800256E0A0E246E92EC1DF02250300F0101A4
:1039A8001F6F5AC01CF01D6A000E1F6E0A0E1E6E95
:1039B800C8EC1FF01C50300F0101206F5BC022F0D3
:1039C800236A000E256E0A0E246E92EC1DF022501A
:1039D800300F0101226F5BC01CF01D6A000E1F6EC4
:1039E8000A0E1E6EC8EC1FF01C50300F0101236F29
:1039F8005CC022F0236A000E256E0A0E246E92EC3B
:103A08001DF02250300F0101256F5CC01CF01D6AAB
:103A1800000E1F6E0A0E1E6EC8EC1FF01C50300FF1
:103A28000101266F380E0001B26F1F0E0001B36F3F
:103A3800010E0001B46F070E0001B66FB569000EE4
:103A48000001B86F000EB76F020E0001B96F0F0EBC
:103A5800C8EC17F012001F50D8B405D01C501D1028
:103A68001E10D8A40ED0000E1C6E000E1D6E000E87
:103A78001E6E53D006D01F2AD8901E321D321C321B
:103A880000D0000E1C14216E000E1D14226EFE0EB6
:103A98001E14236E215022102310D8B40ED0EBD759
:103AA8000CD01F2A010E1C26000E1D22000E1E22FD
:103AB800D8901E321D321C3200D0000E1C14216E0C
:103AC800000E1D14226EFF0E1E14236E21502210AC
:103AD8002310D8B408D0E5D706D01F06D8901C36D6
:103AE8001D361E3600D01DBE04D0020E1F60F5D74D
:103AF80000D01FB002D01D9E00D0D8901F321F509A
:103B08001E122050D8B402D01E8E00D01CC01CF04B
:103B18001DC01DF01EC01EF000D01200000E276E42
:103B280025AE07D0246C251ED8B0252A010E276E95
:103B380000D023AE07D0226C231ED8B0232A010E52
:103B4800271A00D0000E296E000E286E245025106A
:103B5800D8B421D0010E266E05D0D890243625364B
:103B6800262A00D025BE02D0F8D700D0D890283613
:103B780029362450225C25502358D8A006D024503A
:103B8800225E2550235A288000D0D890253224322E
:103B9800262EECD700D02750D8B405D0286C291E83
:103BA800D8B0292A00D028C022F029C023F000D09C
:103BB80012002AAE17D028C02EF029C02FF02AC034
:103BC80030F02E1E2F1E301E2E2A000E2F223022DD
:103BD800000E2E24286E000E2F20296E800E302015
:103BE8002A6E00D02DAE17D02BC02EF02CC02FF08F
:103BF8002DC030F02E1E2F1E301E2E2A000E2F2212
:103C08003022000E2E242B6E000E2F202C6E800EDC
:103C180030202D6E00D0000E281A000E291A800EB2
:103C28002A1A000E2B1A000E2C1A800E2D1A2B5051
:103C3800285C2C5029582D502A58D8B002D0D8903A
:103C480002D0D88000D012000600EACF11F0E1CFF0
:103C580012F0E2CF13F0D9CF14F0DACF15F0F3CF8A
:103C680016F0F4CF17F0F6CF18F0F7CF19F0F8CF19
:103C78001AF0F5CF1BF0F2A203D08AEC25F000D0A1
:103C8800F0A003D097EC25F000D0F0A203D037ECD9
:103C980015F000D09EA003D024EC26F000D01BC065
:103CA800F5FF1AC0F8FF19C0F7FF18C0F6FF17C0D4
:103CB800F4FF16C0F3FF15C0DAFF14C0D9FF13C014
:103CC800E2FF12C0E1FF11C0EAFF10C0E9FF0FC018
:103CD800FBFF0EC0FAFF1100000E246E000E256EC9
:103CE800000E266E000E276E205021102210231081
:103CF800D8B42FD0010E286E07D0D89020362136A0
:103D080022362336282A00D023BE02D0F6D700D088
:103D1800D890243625362636273620501C5C21506C
:103D28001D5822501E5823501F58D8A00AD0205082
:103D38001C5E21501D5A22501E5A23501F5A24809F
:103D480000D0D8902332223221322032282EE0D7D8
:103D580000D024C01CF025C01DF026C01EF027C0CE
:103D68001FF012004D4A4E2A4D044E10D8A404D01C
:103D780083808392839400D0020E4D184E10D8A4ED
:103D880004D083908382839400D0030E4D184E1084
:103D9800D8A404D083808382839400D0040E4D1865
:103DA8004E10D8A404D083908392838400D0050E4B
:103DB8004D184E10D8A404D083808392838400D0F9
:103DC800060E4D184E10D8A404D0839083828384A5
:103DD80000D0070E4D184E10D8A408D083808382D7
:103DE8008384000E4E6E000E4D6E00D012003D6EA4
:103DF800DDEC25F03D503D2452EC23F0110E52EC41
:103E080023F0A3EC25F0D8803D3452EC23F0010ECA
:103E1800F0EC22F03E6E000EF0EC22F03A6ED4EC9C
:103E280025F0000E316E320E306EDFEC21F03EAE22
:103E380015D03E507F0B386E396A381E391E384A05
:103E4800392A800E3826000E3922381E391E384A83
:103E5800392A38C03BF039C03CF008D03EC038F0B1
:103E68007F0E381638503B6E3C6A00D03BC036F0A7
:103E78003CC037F000D012002D6E800E2D603FD070
:103E88009F0E236401D03BD0FF0E276EFF0E286ED5
:103E9800245023C029F02A6A2926000E2A222750F6
:103EA800292628502A222ABE0BD02A5004E1A00E27
:103EB800295CD8A005D023500008A00F246E00D09C
:103EC80026502B6E25C02CF023C01FF02DC020F0EB
:103ED80023502424276E2704216E2D5059EC22F0FC
:103EE8008480849207D02B50B8EC25F02C50B8EC85
:103EF80025F000D024062428D8A4F5D784821200FF
:103F08001E6E1E380F0B0F0B1F6E1F5030091F6ED1
:103F18001EC01CF00F0E1C161C38F00B1D6E829272
:103F28001FC0C9FF00D0C7A0FED7000E216E000E2B
:103F3800206E21BE07D021500CE12004D8B009D052
:103F480001D007D0204A212A21BEFCD7215001E107
:103F5800F4D71DC0C9FF00D0C7A0FED7000E216E40
:103F6800000E206E21BE07D021500CE12004D8B0ED
:103F780009D001D007D0204A212A21BEFCD72150E0
:103F880001E1F4D782821200000E216E1DAE07D027
:103F98001C6C1D1ED8B01D2A010E216E00D01FAE4C
:103FA80005D01E6C1F1ED8B01F2A00D01E501F102F
:103FB800D8B41DD0010E206E05D0D8901E361F36FD
:103FC800202A00D01FBE02D0F8D700D01E501C5C9B
:103FD8001F501D58D8A005D01E501C5E1F501D5ADA
:103FE80000D0D8901F321E32202EF0D700D021509A
:103FF800D8B405D01C6C1D1ED8B01D2A00D01CC01A
:104008001CF01DC01DF000D01200366EDDEC25F04E
:104018003650362452EC23F0000E52EC23F0A3EC79
:1040280025F0D880363452EC23F0010EF0EC22F063
:104038000001F66F010EF0EC22F00001F26F010EA4
:10404800F0EC22F00001F16F010EF0EC22F0576E57
:10405800010EF0EC22F00001EF6F010EF0EC22F0FF
:104068000001F36F000EF0EC22F00001F86FD4ECC1
:1040780025F0000E316E320E306EDFEC21F01200AA
:1040880000EEDBF01E0EEE6AE806FDE100EE49F0F8
:104098001B0EEE6AE806FDE1CA0EF66E480EF76ED4
:1040A800000EF86E01EE00F010EE31F00900F5CFC9
:1040B800EEFFE550E150FAE1340EF66E480EF76E69
:1040C800000EF86E00EE80F010EE32F00900F5CF29
:1040D800EEFFE550E150FAE1B00EF66E4C0EF76EC9
:1040E800000EF86E0900F5CF64F0000EF86E0001BE
:1040F8002AEF0DF02D502E102F103010D8B429D0E3
:10410800010E316E07D0D8902D362E362F36303628
:10411800312A00D030BE02D0F6D700D02D50295C0D
:104128002E502A582F502B5830502C58D8A009D030
:104138002D50295E2E502A5A2F502B5A30502C5A67
:1041480000D0D89030322F322E322D32312EE6D791
:1041580000D029C029F02AC02AF02BC02BF02CC08F
:104168002CF012001E6E000EAC6E000EAB6E1EA080
:1041780002D0AC8800D01EA203D0AC8CAB8C00D08F
:104188001EA402D0AC8E00D01EA602D0AB8802D0EE
:10419800AB8A00D01EB8AC849E981EAA02D0AB860B
:1041A80000D01EAC02D09D8A01D09D9A9E9A1EAE68
:1041B80002D09D8801D09D981CC0AFFF1D50B06EE5
:1041C800AC8AAB8E949C948EACB8ACBE02D0948C66
:1041D80000D01200000E18EC26F0FEEC24F01CC0F3
:1041E80024F01DC025F0EBEC24F024C0B8F025C065
:1041F800B9F026C0BAF0000E336E800E346E400E51
:10420800356EB8C030F0B9C031F0BAC032F0F0EC59
:104218001AF030C03FF031C040F032C041F0400EDB
:10422800426E9C0E436E460E446E70EC1AF03FC010
:10423800DBF040C0DCF041C0DDF000D01200F7C078
:1042480022F0236A000E256E0A0E246E92EC1DF0F1
:104258002250300F0001A96FF7C01CF01D6A000E34
:104268001F6E0A0E1E6EC8EC1FF01C50300F0001A6
:10427800AA6F5E0E0001B26FA90E0001B36F000EA7
:104288000001B46F000E0001B66F1F0EB56F000E6F
:104298000001B86F000EB76F020E0001B96F2E0E45
:1042A800C8EC17F012008E0E2C6E07D0D89027326B
:1042B8002632253224322C2A00D0000E2414286EEF
:1042C800000E2514296E000E26142A6EFF0E2714E0
:1042D8002B6E285029102A102B10D8A4E7D724C0F9
:1042E8001CF025C01DF026C01EF02CC01FF0000ECB
:1042F800206E2FEC1DF01CC024F01DC025F01EC040
:1043080026F000D01200366EDDEC25F0365036244B
:1043180052EC23F0000E52EC23F00001F65152EC5F
:1043280023F00001F25152EC23F00001F15152EC5C
:1043380023F0575052EC23F00001EF5152EC23F0D8
:104348000001F35152EC23F00001F85152EC23F034
:10435800000E316E140E306EDFEC21F01200306E5C
:1043680030C022F0236A000E256E0A0E246E92ECED
:104378001DF022C02CF023C02DF02C3A2D3AF00E5F
:104388002D162C500F0B2D12F00E2C1630C01CF0D1
:104398001D6A000E1F6E0A0E1E6EC8EC1FF01C5020
:1043A8002C242E6E1D502D202F6E2EC02AF02FC0CB
:1043B8002BF000D0120030C02AF031C02BF0000ED4
:1043C8002D6E3E0E2C6EC3EC24F02AC034F02BC0A8
:1043D80035F034C032F035C033F0321E331E324A65
:1043E800332AFF0E3224346EFF0E3320356E040E4E
:1043F800D56E34C0D6FF3550D76EF294D58E00D026
:10440800F2A4FED7D59E120007C001F008C002F042
:10441800000E046E3E0E036ED7EC24F001C00BF0C4
:1044280002C00CF00BC009F00CC00AF0091E0A1EED
:10443800094A0A2AFF0E09240B6EFF0E0A200C6E89
:10444800040ED56E0BC0D6FF0C50D76EF294D58EE5
:1044580000D0F2A4FED7D59E12000001C151000180
:10446800C2110001C311D8B40AD0000E0001C11B4B
:10447800000E0001C21B800E0001C31B00D0BEC08D
:10448800B2F0BFC0B3F0C0C0B4F0C1C0B5F0C2C094
:10449800B6F0C3C0B7F07AEC0EF0B2C0BEF0B3C04D
:1044A800BFF0B4C0C0F000D01200226E2A0E09EC92
:1044B80026F0000E01EC26F02250562401EC26F0DE
:1044C800000E01EC26F02050562401EC26F02B0EAD
:1044D80009EC26F0000E01EC26F01F50592401ECDF
:1044E80026F0000E01EC26F02150592401EC26F0AC
:1044F8002C0E09EC26F01200376E0E0E1F6E375088
:104508004CEC24F0386E3850010B386E38502509C1
:10451800386E0E0E1E6E38C01FF037506CEC25F04A
:10452800680ECBEC22F055507F0B556E54507F0B24
:10453800546E53507F0B536E800E526E680EADEC66
:1045480023F01200366E36C037F0386A0ED02EC00F
:1045580023F030C024F031C025F032C026F03750A7
:1045680040EC1FF0374A382A00D02F5036C033F0BD
:10457800346A3326000E34223350375C3850800AB0
:10458800356E3450800A3558D8A0E1D71200366EFF
:10459800DDEC25F03650362452EC23F0070E52ECB1
:1045A80023F0A3EC25F0D880363452EC23F0010E2A
:1045B800F0EC22F0556E010EF0EC22F0546E000E75
:1045C800F0EC22F0536ED4EC25F0000E316E320E72
:1045D800306EDFEC21F012001C6E48EC26F0000E65
:1045E8001D6E070E1D6401D00FD01EEC26F081A8A9
:1045F80003D0D8801E3604D01E501E241E6E00D054
:1046080044EC26F01D2AEDD71C50D8B403D0E6ECB4
:1046180025F003D035EC26F000D01E5000D0120053
:104628002A0E09EC26F0000E01EC26F0000E01EC33
:1046380026F0000E01EC26F07F0E01EC26F02B0E82
:1046480009EC26F0000E01EC26F0000E01EC26F035
:10465800000E01EC26F09F0E01EC26F012001CC0A3
:1046680020F01DC021F003D0204A212A00D020C00C
:10467800D9FF21C0DAFFDF50D8A4F6D71CC01EF03E
:104688001DC01FF01E1E1F1E1E4A1F2A20501E245A
:104698001C6E21501F201D6E00D012001C6E000ED3
:1046A8001D6E070E1D6401D011D01CAE03D048EC5E
:1046B80026F003D03AEC26F000D01EEC26F044ECAD
:1046C80026F01C501C241C6E1D2AEBD748EC26F043
:1046D8001EEC26F044EC26F01200016E000E026E6D
:1046E800070E026401D011D001AE03D050EC26F0C1
:1046F80003D03FEC26F000D02AEC26F04CEC26F054
:1047080001500124016E022AEBD750EC26F02AEC66
:1047180026F04CEC26F01200316E000E286E200EAA
:10472800296E400E2A6E315024EC25F024C02BF05F
:1047380025C02CF026C02DF0DDEC1DF0D8B004D03B
:1047480083868388838A04D083968398839A00D04B
:104758001200366EDDEC25F03650362452EC23F08C
:10476800070E52EC23F0555052EC23F0545052EC03
:1047780023F0535052EC23F0525052EC23F0000E29
:10478800316E140E306EDFEC21F01200366EF292AC
:10479800F096DDEC25F03650362452EC23F00E0E60
:1047A80052EC23F0060E52EC23F0800E52EC23F06C
:1047B800D4EC25F0000E316E140E306EDFEC21F0D3
:1047C80012000D6EF292F096F8EC25F00D500D24C3
:1047D80071EC23F00E0E71EC23F0060E71EC23F051
:1047E800800E71EC23F0EFEC25F0000E086E140E2D
:1047F800076E08EC22F01200366EF086DDEC25F02C
:104808003650362452EC23F00E0E52EC23F0070EED
:1048180052EC23F0800E52EC23F0D4EC25F0000E7D
:10482800316E140E306EDFEC21F0120030312F3073
:10483800312F30300030303A30303A3030003030BC
:104848003A30303A3030004F4646004F4646003046
:1048580030003630003630003235003737001CC0A3
:1048680020F01DC021F005D0204A212A1E4A1F2A07
:1048780000D01EC0F6FF1FC0F7FF20C0D9FF21C01F
:10488800DAFF0800F5CFDFFFDF50D8A4EDD712001C
:10489800216EDDEC25F02150212452EC23F01F502D
:1048A80052EC23F0A3EC25F0D880213452EC23F00D
:1048B800000EF0EC22F0206ED4EC25F0205000D051
:1048C800120020454345333330314C205370726910
:1048D8006E6720323031390000000000000000000F
:1048E8000030303A30303A30300030312F30312F0C
:1048F80030300000226E22C01EF00F0E1E1622C09D
:104908001FF01F3A0F0E1F161F500A0D1E50F324DA
:10491800206E000EF420216E20C01CF021C01DF076
:1049280000D01200266E800E266013D09F0E2364DE
:1049380001D00FD023C01FF02628206E2328216E17
:10494800265059EC22F0255001EC26F0245001ECB9
:1049580026F0120084828490800EC76E300EC66ED8
:10496800DCEC18F014EC23F06CEC1BF0360E09ECC0
:1049780026F0C00E01EC26F0010E516E12002A50EE
:104988002C02F3CF2EF0F4CF2FF02A502D02F35043
:104998002F262B502C02F3502F262EC02AF02FC082
:1049A8002BF000D0120001500302F3CF05F0F4CF32
:1049B80006F001500402F350062602500302F35099
:1049C800062605C001F006C002F000D0120024C07F
:1049D8001CF025C01DF01E6A8E0E1F6E000E206E84
:1049E8002FEC1DF01CC024F01DC025F01EC026F0C1
:1049F80000D01200C28200D0C2B2FED7C4501F6ECF
:104A08001E6AC3501E24206E000E1F20216E20C077
:104A18001CF021C01DF000D012005A0E0001E81948
:104A2800D8A402D0000E03D00001E8510A0F0001FB
:104A3800E86F00D00001E851640F84EC1FF0120009
:104A4800276E27501C6E1D6A1E6A8E0E1F6E000E82
:104A5800206E2FEC1DF01CC024F01DC025F01EC0D8
:104A680026F000D012001C501D101E10D8B406D01D
:104A7800000E1C1A000E1D1A800E1E1A1CC01CF0F7
:104A88001DC01DF01EC01EF012000001E851D8A480
:104A980002D0000E03D00001E851F60F0001E86FC4
:104AA80000D00001E851640F84EC1FF012001E6E64
:104AB800000E1D6E3A0E1E6006D02F0E1E6403D027
:104AC800010E1D6E00D01DC01CF01C3000D012005D
:104AD800206EDDEC25F02050202452EC23F01E50EF
:104AE80052EC23F01F5052EC23F0D4EC25F01200C6
:104AF800000E236E800E246EA00E256E2FC026F0A9
:104B080030C027F0000E5AEC1CF01200F292000E92
:104B18000001EC6F54EC26F0000E836E680EE5EC95
:104B280023F0F0961200F0900001EB05D8A402D013
:104B3800010E01D0000E0001EC6F00D0120044EC11
:104B480026F048EC26F01EEC26F03AEC26F044EC71
:104B580026F01200000E1D6E190E1C6E3C0EB6ECEF
:104B680020F0700ED36E12001D6E9E96C9CF1CF0F9
:104B78001DC0C9FF00D0C7A0FED712007C0ECB6EA7
:104B8800050ECA6E3E0EBB6E1C0EBA6E12008494E1
:104B9800000E316E640E306EDFEC21F0848412005A
:104BA80044EC26F03AEC26F01EEC26F048EC26F011
:104BB800120048EC26F01EEC26F03AEC26F044EC05
:104BC80026F012003AEC26F01EEC26F044EC26F013
:104BD80048EC26F012004CEC26F03FEC26F02AECCC
:104BE80026F050EC26F0120050EC26F02AEC26F0C5
:104BF8003FEC26F04CEC26F012001E6E8492848066
:104C08001E50B8EC25F0848212001E6E84928490A7
:104C18001E50B8EC25F0848212001C6E00D0ACA2A5
:104C2800FED71CC0ADFF12001C6E1C50040DF328EB
:104C3800C26E1200938A060EE82EFED700D012002C
:104C4800000E586EF198CD909E901200938A060E31
:104C5800E82EFED700D012001EEC26F048EC26F015
:104C680012001EEC26F044EC26F01200819893986E
:104C780000D000D012008198939800D000D0120084
:104C8800819A939A00D01200938800D000D0120025
:104C9800819A939A00D01200938800D000D0120015
:0A4CA800000EBA6E819612000100A2
:10FCB80000000000000000005F00000007000700CF
:10FCC800147F147F14242A7F2A12231308646236AF
:10FCD800495620500008070300001C22410000413B
:10FCE800221C002A1C7F1C2A08083E080800807075
:10FCF80030000808080808000060600020100804A8
:10FD0800023E5149453E00427F40007249494946FA
:10FD18002141494D331814127F1027454545393C78
:10FD28004A49493141211109073649494936464965
:10FD380049291E0000140000004034000000081487
:10FD48002241141414141400412214080201590900
:10FD5800063E415D594E7C1211127C7F4949493655
:10FD68003E414141227F4141413E7F494949417FCE
:10FD7800090909013E414151737F0808087F004184
:10FD88007F41002040413F017F081422417F4040CD
:10FD980040407F021C027F7F0408107F3E414141A2
:10FDA8003E7F090909063E4151215E7F091929460E
:10FDB800264949493203017F01033F4040403F1F24
:10FDC8002040201F3F4038403F6314081463030459
:10FDD8007804036159494D43007F414141020408B9
:10FDE8001020004141417F0402010204404040408C
:10FDF80040000307080020545478407F28444438C2
:10FE08003844444428384444287F3854545418000B
:10FE1800087E090218A4A49C787F0804047800448A
:10FE28007D40002040403D007F1028440000417F75
:10FE380040007C047804787C0804047838444444FE
:10FE480038FC1824241818242418FC7C08040408F6
:10FE5800485454542404043F44243C4040207C1C0F
:10FE68002040201C3C4030403C44281028444C9002
:10FE780090907C4464544C4400083641000000775C
:10FE880000000041360800020102040201000000DF
:10FE98000A00000064000000E803000010270000CA
:10FEA800A086010040420F008096980000E1F50509
:10FEB80000CA9A3B00803FCDCC3DD7233C12833A01
:10FEC800B7D138C62737388635C0D633CC2B3270F1
:10FED8008930E7DB2EE53C1E42A20D00803F002062
:10FEE8004100C842007A44401C4650C34724744924
:10FEF80097184BBCBE4C6B6E4E03155079AD60F332
:10FF0800497101000000100000000001000000100D
:10FF180000000000010000001000000000010000C7
:10FF2800001054696D653A20253032783A25303210
:10FF3800783A253032782020446174653A2025309B
:10FF480032783A253032783A25303278202000202D
:10FF5800454345333330314C20537072696E672006
:10FF680032303139000054656D703A2025326420F2
:10FF7800432025326420460D003031323334353683
:10FF88003738396162636465660048656174657213
:10FF9800205365742054656D700054656D706572EA
:10FFA80061747572653A0054696D6520536574759E
:10FFB8007000000D566F6C74203D20256600416C62
:10FFC800726D2053657475700048656174657200C0
:10FFD8000048656174657200414C41524D00546996
:10FFE8006D650044617465004F4E20004C45440027
:08FFF8004F464600432F0000B4
:020000040020DA
:08000000FFFFFFFFFFFFFFFF00
:020000040030CA
:0E000000FF08191EFF8281FF0FC00FE00F40A6
:00000001FF
